{
  "contractName": "StreamerCredentials",
  "abi": [
    {
      "inputs": [],
      "stateMutability": "nonpayable",
      "type": "constructor"
    },
    {
      "anonymous": false,
      "inputs": [
        {
          "indexed": true,
          "internalType": "address",
          "name": "previousOwner",
          "type": "address"
        },
        {
          "indexed": true,
          "internalType": "address",
          "name": "newOwner",
          "type": "address"
        }
      ],
      "name": "OwnershipTransferred",
      "type": "event"
    },
    {
      "inputs": [],
      "name": "owner",
      "outputs": [
        {
          "internalType": "address",
          "name": "",
          "type": "address"
        }
      ],
      "stateMutability": "view",
      "type": "function"
    },
    {
      "inputs": [],
      "name": "renounceOwnership",
      "outputs": [],
      "stateMutability": "nonpayable",
      "type": "function"
    },
    {
      "inputs": [
        {
          "internalType": "address",
          "name": "newOwner",
          "type": "address"
        }
      ],
      "name": "transferOwnership",
      "outputs": [],
      "stateMutability": "nonpayable",
      "type": "function"
    },
    {
      "inputs": [
        {
          "internalType": "address",
          "name": "addr",
          "type": "address"
        },
        {
          "internalType": "string",
          "name": "key",
          "type": "string"
        },
        {
          "internalType": "string",
          "name": "secret",
          "type": "string"
        }
      ],
      "name": "setCredentialsAddress",
      "outputs": [],
      "stateMutability": "nonpayable",
      "type": "function"
    },
    {
      "inputs": [
        {
          "internalType": "address",
          "name": "addr",
          "type": "address"
        }
      ],
      "name": "clearCredentialsAddress",
      "outputs": [],
      "stateMutability": "nonpayable",
      "type": "function"
    },
    {
      "inputs": [],
      "name": "getCredentials",
      "outputs": [
        {
          "internalType": "string",
          "name": "",
          "type": "string"
        },
        {
          "internalType": "string",
          "name": "",
          "type": "string"
        }
      ],
      "stateMutability": "view",
      "type": "function"
    },
    {
      "inputs": [
        {
          "internalType": "string",
          "name": "key",
          "type": "string"
        },
        {
          "internalType": "string",
          "name": "secret",
          "type": "string"
        }
      ],
      "name": "setCredentials",
      "outputs": [],
      "stateMutability": "nonpayable",
      "type": "function"
    },
    {
      "inputs": [],
      "name": "clearCredentials",
      "outputs": [],
      "stateMutability": "nonpayable",
      "type": "function"
    }
  ],
  "bytecode": "0x608060405234801561001057600080fd5b50600061001b61006a565b600080546001600160a01b0319166001600160a01b0383169081178255604051929350917f8be0079c531659141344cd1fd0a4f28419497f9722a3daafe3b4186f6b6457e0908290a35061006e565b3390565b610b098061007d6000396000f3fe608060405234801561001057600080fd5b50600436106100785760003560e01c806318aeb9ba1461007d57806322941338146101b8578063715018a61461029e57806384ece378146102a65780638da5cb5b146103cf578063cb9f796a146103f3578063f2fde38b14610419578063f630a5381461043f575b600080fd5b6101b66004803603606081101561009357600080fd5b6001600160a01b038235169190810190604081016020820135600160201b8111156100bd57600080fd5b8201836020820111156100cf57600080fd5b803590602001918460018302840111600160201b831117156100f057600080fd5b91908080601f0160208091040260200160405190810160405280939291908181526020018383808284376000920191909152509295949360208101935035915050600160201b81111561014257600080fd5b82018360208201111561015457600080fd5b803590602001918460018302840111600160201b8311171561017557600080fd5b91908080601f016020809104026020016040519081016040528093929190818152602001838380828437600092019190915250929550610447945050505050565b005b6101c0610500565b604051808060200180602001838103835285818151815260200191508051906020019080838360005b838110156102015781810151838201526020016101e9565b50505050905090810190601f16801561022e5780820380516001836020036101000a031916815260200191505b50838103825284518152845160209182019186019080838360005b83811015610261578181015183820152602001610249565b50505050905090810190601f16801561028e5780820380516001836020036101000a031916815260200191505b5094505050505060405180910390f35b6101b661067c565b6101b6600480360360408110156102bc57600080fd5b810190602081018135600160201b8111156102d657600080fd5b8201836020820111156102e857600080fd5b803590602001918460018302840111600160201b8311171561030957600080fd5b91908080601f0160208091040260200160405190810160405280939291908181526020018383808284376000920191909152509295949360208101935035915050600160201b81111561035b57600080fd5b82018360208201111561036d57600080fd5b803590602001918460018302840111600160201b8311171561038e57600080fd5b91908080601f01602080910402602001604051908101604052809392919081815260200183838082843760009201919091525092955061071e945050505050565b6103d761078e565b604080516001600160a01b039092168252519081900360200190f35b6101b66004803603602081101561040957600080fd5b50356001600160a01b031661079d565b6101b66004803603602081101561042f57600080fd5b50356001600160a01b0316610863565b6101b661095b565b61044f6109dc565b6000546001600160a01b0390811691161461049f576040805162461bcd60e51b81526020600482018190526024820152600080516020610ab4833981519152604482015290519081900360640190fd5b60408051808201825283815260208082018490526001600160a01b0386166000908152600182529290922081518051929391926104df92849201906109e0565b5060208281015180516104f892600185019201906109e0565b505050505050565b60608061050b610a5e565b600160006105176109dc565b6001600160a01b0316815260208082019290925260409081016000208151815460026001821615610100026000190190911604601f810185900490940281016060908101845292810184815290939192849284918401828280156105bc5780601f10610591576101008083540402835291602001916105bc565b820191906000526020600020905b81548152906001019060200180831161059f57829003601f168201915b50505050508152602001600182018054600181600116156101000203166002900480601f01602080910402602001604051908101604052809291908181526020018280546001816001161561010002031660029004801561065e5780601f106106335761010080835404028352916020019161065e565b820191906000526020600020905b81548152906001019060200180831161064157829003601f168201915b50505050508152505090508060000151816020015192509250509091565b6106846109dc565b6000546001600160a01b039081169116146106d4576040805162461bcd60e51b81526020600482018190526024820152600080516020610ab4833981519152604482015290519081900360640190fd5b600080546040516001600160a01b03909116907f8be0079c531659141344cd1fd0a4f28419497f9722a3daafe3b4186f6b6457e0908390a3600080546001600160a01b0319169055565b6040518060400160405280838152602001828152506001600061073f6109dc565b6001600160a01b0316815260208082019290925260400160002082518051919261076e928492909101906109e0565b50602082810151805161078792600185019201906109e0565b5050505050565b6000546001600160a01b031690565b6107a56109dc565b6000546001600160a01b039081169116146107f5576040805162461bcd60e51b81526020600482018190526024820152600080516020610ab4833981519152604482015290519081900360640190fd5b6040805160608101825260008183018181528252825160208181018552828252808401919091526001600160a01b038516825260018152929020815180519293919261084492849201906109e0565b50602082810151805161085d92600185019201906109e0565b50505050565b61086b6109dc565b6000546001600160a01b039081169116146108bb576040805162461bcd60e51b81526020600482018190526024820152600080516020610ab4833981519152604482015290519081900360640190fd5b6001600160a01b0381166109005760405162461bcd60e51b8152600401808060200182810382526026815260200180610a8e6026913960400191505060405180910390fd5b600080546040516001600160a01b03808516939216917f8be0079c531659141344cd1fd0a4f28419497f9722a3daafe3b4186f6b6457e091a3600080546001600160a01b0319166001600160a01b0392909216919091179055565b604080516060810182526000818301818152825282516020818101909452818152928201929092529060019061098f6109dc565b6001600160a01b031681526020808201929092526040016000208251805191926109be928492909101906109e0565b5060208281015180516109d792600185019201906109e0565b505050565b3390565b828054600181600116156101000203166002900490600052602060002090601f016020900481019282601f10610a2157805160ff1916838001178555610a4e565b82800160010185558215610a4e579182015b82811115610a4e578251825591602001919060010190610a33565b50610a5a929150610a78565b5090565b604051806040016040528060608152602001606081525090565b5b80821115610a5a5760008155600101610a7956fe4f776e61626c653a206e6577206f776e657220697320746865207a65726f20616464726573734f776e61626c653a2063616c6c6572206973206e6f7420746865206f776e6572a2646970667358221220d3132feddf248bfe0511e794c8574818d776093a682cda2ba4ef42a35534a47d64736f6c634300060c0033",
  "immutableReferences": {},
  "source": "// SPDX-License-Identifier: GPL-3.0-or-later\npragma solidity >=0.5.0 <0.7.0;\n\nimport '@openzeppelin/contracts/access/Ownable.sol';\n\ncontract StreamerCredentials is Ownable {\n    constructor() public {}\n\n    struct Credentials {\n        string ApiKey;\n        string ApiSecret;\n    }\n\n    mapping(address => Credentials) _userCredentials;\n\n    function setCredentialsAddress(address addr, string memory key, string memory secret) public onlyOwner {\n      _userCredentials[addr] = Credentials(key, secret);\n    }\n\n    function clearCredentialsAddress(address addr) public onlyOwner {\n      _userCredentials[addr] = Credentials('', '');\n    }\n\n    function getCredentials() public view returns (string memory, string memory) {\n      Credentials memory credentials = _userCredentials[_msgSender()];\n      return (credentials.ApiKey, credentials.ApiSecret);\n    }\n\n    function setCredentials(string memory key, string memory secret) public {\n      _userCredentials[_msgSender()] = Credentials(key, secret);\n    }\n\n    function clearCredentials() public {\n      _userCredentials[_msgSender()] = Credentials('', '');\n    }\n}\n",
  "sourcePath": "/mnt/e/Repositories/uproot-streaming/contracts/StreamerCredentials.sol",
  "compiler": {
    "name": "solc",
    "version": "0.6.12+commit.27d51765.Emscripten.clang"
  },
  "schemaVersion": "3.1.0",
  "updatedAt": "2020-07-25T22:40:53.510Z",
  "devdoc": {
    "kind": "dev",
    "methods": {
      "owner()": {
        "details": "Returns the address of the current owner."
      },
      "renounceOwnership()": {
        "details": "Leaves the contract without owner. It will not be possible to call `onlyOwner` functions anymore. Can only be called by the current owner. NOTE: Renouncing ownership will leave the contract without an owner, thereby removing any functionality that is only available to the owner."
      },
      "transferOwnership(address)": {
        "details": "Transfers ownership of the contract to a new account (`newOwner`). Can only be called by the current owner."
      }
    },
    "version": 1
  },
  "userdoc": {
    "kind": "user",
    "methods": {},
    "version": 1
  }
}